2024-05-04 17:16:15,257 INFO - using protocol rpc
2024-05-04 17:16:27,417 INFO - using protocol rpc
2024-05-04 17:20:32,373 DEBUG - request: http://192.168.11.139:8545, call,data: b'{"jsonrpc": "2.0", "method": "call", "params": [1, {"data": "0x2d015f810000000000000000000000000000000000000000000000000000000000000003", "from": "0x2De5C210370Daef452Eb610AF76C3A293AE1661f", "to": "0xa2a0fc2a849613f56faf7a2f315bd7749bf95c62", "value": 0}], "id": 0}'
2024-05-04 17:20:32,447 DEBUG - GetResponse. call, Response: {'id': 0, 'jsonrpc': '2.0', 'result': {'currentBlockNumber': '0x2f', 'output': '0x00000000000000000000000000000000000000000000000000000000000000200000000000000000000000000000000000000000000000000000000000000000', 'status': '0x0'}}
2024-05-04 17:21:24,724 DEBUG - request: http://192.168.11.139:8545, call,data: b'{"jsonrpc": "2.0", "method": "call", "params": [1, {"data": "0x2d015f810000000000000000000000000000000000000000000000000000000000000006", "from": "0x2De5C210370Daef452Eb610AF76C3A293AE1661f", "to": "0xa2a0fc2a849613f56faf7a2f315bd7749bf95c62", "value": 0}], "id": 1}'
2024-05-04 17:21:24,787 DEBUG - GetResponse. call, Response: {'id': 1, 'jsonrpc': '2.0', 'result': {'currentBlockNumber': '0x2f', 'output': '0x00000000000000000000000000000000000000000000000000000000000000200000000000000000000000000000000000000000000000000000000000000000', 'status': '0x0'}}
2024-05-04 17:22:51,689 INFO - using protocol rpc
2024-05-04 17:26:47,031 INFO - using protocol rpc
2024-05-04 17:39:15,794 DEBUG - request: http://192.168.11.139:8545, call,data: b'{"jsonrpc": "2.0", "method": "call", "params": [1, {"data": "0x2d015f810000000000000000000000000000000000000000000000000000000000000003", "from": "0x2De5C210370Daef452Eb610AF76C3A293AE1661f", "to": "0xa2a0fc2a849613f56faf7a2f315bd7749bf95c62", "value": 0}], "id": 0}'
2024-05-04 17:39:15,851 DEBUG - GetResponse. call, Response: {'id': 0, 'jsonrpc': '2.0', 'result': {'currentBlockNumber': '0x2f', 'output': '0x00000000000000000000000000000000000000000000000000000000000000200000000000000000000000000000000000000000000000000000000000000000', 'status': '0x0'}}
2024-05-04 17:40:00,058 DEBUG - request: http://192.168.11.139:8545, call,data: b'{"jsonrpc": "2.0", "method": "call", "params": [1, {"data": "0x2d015f810000000000000000000000000000000000000000000000000000000000000003", "from": "0x2De5C210370Daef452Eb610AF76C3A293AE1661f", "to": "0xa2a0fc2a849613f56faf7a2f315bd7749bf95c62", "value": 0}], "id": 1}'
2024-05-04 17:40:00,078 DEBUG - GetResponse. call, Response: {'id': 1, 'jsonrpc': '2.0', 'result': {'currentBlockNumber': '0x2f', 'output': '0x00000000000000000000000000000000000000000000000000000000000000200000000000000000000000000000000000000000000000000000000000000000', 'status': '0x0'}}
2024-05-04 17:47:47,040 INFO - using protocol rpc
2024-05-04 17:48:03,628 DEBUG - request: http://192.168.11.139:8545, call,data: b'{"jsonrpc": "2.0", "method": "call", "params": [1, {"data": "0x2d015f810000000000000000000000000000000000000000000000000000000000000003", "from": "0x2De5C210370Daef452Eb610AF76C3A293AE1661f", "to": "0xa2a0fc2a849613f56faf7a2f315bd7749bf95c62", "value": 0}], "id": 0}'
2024-05-04 17:48:03,711 DEBUG - GetResponse. call, Response: {'id': 0, 'jsonrpc': '2.0', 'result': {'currentBlockNumber': '0x2f', 'output': '0x00000000000000000000000000000000000000000000000000000000000000200000000000000000000000000000000000000000000000000000000000000000', 'status': '0x0'}}
2024-05-04 17:51:07,072 DEBUG - request: http://192.168.11.139:8545, call,data: b'{"jsonrpc": "2.0", "method": "call", "params": [1, {"data": "0x2d015f810000000000000000000000000000000000000000000000000000000000000003", "from": "0x2De5C210370Daef452Eb610AF76C3A293AE1661f", "to": "0xa2a0fc2a849613f56faf7a2f315bd7749bf95c62", "value": 0}], "id": 1}'
2024-05-04 17:51:07,088 DEBUG - GetResponse. call, Response: {'id': 1, 'jsonrpc': '2.0', 'result': {'currentBlockNumber': '0x2f', 'output': '0x00000000000000000000000000000000000000000000000000000000000000200000000000000000000000000000000000000000000000000000000000000000', 'status': '0x0'}}
2024-05-04 17:52:48,449 DEBUG - request: http://192.168.11.139:8545, call,data: b'{"jsonrpc": "2.0", "method": "call", "params": [1, {"data": "0x2d015f810000000000000000000000000000000000000000000000000000000000000003", "from": "0x2De5C210370Daef452Eb610AF76C3A293AE1661f", "to": "0xa2a0fc2a849613f56faf7a2f315bd7749bf95c62", "value": 0}], "id": 2}'
2024-05-04 17:52:48,474 DEBUG - GetResponse. call, Response: {'id': 2, 'jsonrpc': '2.0', 'result': {'currentBlockNumber': '0x2f', 'output': '0x00000000000000000000000000000000000000000000000000000000000000200000000000000000000000000000000000000000000000000000000000000000', 'status': '0x0'}}
2024-05-04 17:52:56,102 DEBUG - request: http://192.168.11.139:8545, call,data: b'{"jsonrpc": "2.0", "method": "call", "params": [1, {"data": "0x2d015f810000000000000000000000000000000000000000000000000000000000000001", "from": "0x2De5C210370Daef452Eb610AF76C3A293AE1661f", "to": "0xa2a0fc2a849613f56faf7a2f315bd7749bf95c62", "value": 0}], "id": 3}'
2024-05-04 17:52:56,123 DEBUG - GetResponse. call, Response: {'id': 3, 'jsonrpc': '2.0', 'result': {'currentBlockNumber': '0x2f', 'output': '0x00000000000000000000000000000000000000000000000000000000000000200000000000000000000000000000000000000000000000000000000000000000', 'status': '0x0'}}
2024-05-04 17:53:30,261 DEBUG - request: http://192.168.11.139:8545, call,data: b'{"jsonrpc": "2.0", "method": "call", "params": [1, {"data": "0x2d015f810000000000000000000000000000000000000000000000000000000000000001", "from": "0x2De5C210370Daef452Eb610AF76C3A293AE1661f", "to": "0xa2a0fc2a849613f56faf7a2f315bd7749bf95c62", "value": 0}], "id": 4}'
2024-05-04 17:53:30,282 DEBUG - GetResponse. call, Response: {'id': 4, 'jsonrpc': '2.0', 'result': {'currentBlockNumber': '0x2f', 'output': '0x00000000000000000000000000000000000000000000000000000000000000200000000000000000000000000000000000000000000000000000000000000000', 'status': '0x0'}}
2024-05-04 17:53:45,602 DEBUG - request: http://192.168.11.139:8545, call,data: b'{"jsonrpc": "2.0", "method": "call", "params": [1, {"data": "0x2d015f810000000000000000000000000000000000000000000000000000000000000003", "from": "0x2De5C210370Daef452Eb610AF76C3A293AE1661f", "to": "0xa2a0fc2a849613f56faf7a2f315bd7749bf95c62", "value": 0}], "id": 5}'
2024-05-04 17:53:45,619 DEBUG - GetResponse. call, Response: {'id': 5, 'jsonrpc': '2.0', 'result': {'currentBlockNumber': '0x2f', 'output': '0x00000000000000000000000000000000000000000000000000000000000000200000000000000000000000000000000000000000000000000000000000000000', 'status': '0x0'}}
2024-05-04 17:54:18,246 DEBUG - request: http://192.168.11.139:8545, call,data: b'{"jsonrpc": "2.0", "method": "call", "params": [1, {"data": "0x2d015f810000000000000000000000000000000000000000000000000000000000000002", "from": "0x2De5C210370Daef452Eb610AF76C3A293AE1661f", "to": "0xa2a0fc2a849613f56faf7a2f315bd7749bf95c62", "value": 0}], "id": 6}'
2024-05-04 17:54:18,283 DEBUG - GetResponse. call, Response: {'id': 6, 'jsonrpc': '2.0', 'result': {'currentBlockNumber': '0x2f', 'output': '0x00000000000000000000000000000000000000000000000000000000000000200000000000000000000000000000000000000000000000000000000000000000', 'status': '0x0'}}
2024-05-04 17:55:16,395 DEBUG - request: http://192.168.11.139:8545, call,data: b'{"jsonrpc": "2.0", "method": "call", "params": [1, {"data": "0x2d015f810000000000000000000000000000000000000000000000000000000000000002", "from": "0x2De5C210370Daef452Eb610AF76C3A293AE1661f", "to": "0xa2a0fc2a849613f56faf7a2f315bd7749bf95c62", "value": 0}], "id": 7}'
2024-05-04 17:55:16,415 DEBUG - GetResponse. call, Response: {'id': 7, 'jsonrpc': '2.0', 'result': {'currentBlockNumber': '0x2f', 'output': '0x00000000000000000000000000000000000000000000000000000000000000200000000000000000000000000000000000000000000000000000000000000000', 'status': '0x0'}}
2024-05-04 17:55:25,859 DEBUG - request: http://192.168.11.139:8545, call,data: b'{"jsonrpc": "2.0", "method": "call", "params": [1, {"data": "0x2d015f810000000000000000000000000000000000000000000000000000000000000003", "from": "0x2De5C210370Daef452Eb610AF76C3A293AE1661f", "to": "0xa2a0fc2a849613f56faf7a2f315bd7749bf95c62", "value": 0}], "id": 8}'
2024-05-04 17:55:25,877 DEBUG - GetResponse. call, Response: {'id': 8, 'jsonrpc': '2.0', 'result': {'currentBlockNumber': '0x2f', 'output': '0x00000000000000000000000000000000000000000000000000000000000000200000000000000000000000000000000000000000000000000000000000000000', 'status': '0x0'}}
2024-05-04 17:56:12,217 DEBUG - request: http://192.168.11.139:8545, call,data: b'{"jsonrpc": "2.0", "method": "call", "params": [1, {"data": "0x2d015f810000000000000000000000000000000000000000000000000000000000000003", "from": "0x2De5C210370Daef452Eb610AF76C3A293AE1661f", "to": "0xa2a0fc2a849613f56faf7a2f315bd7749bf95c62", "value": 0}], "id": 9}'
2024-05-04 17:56:12,238 DEBUG - GetResponse. call, Response: {'id': 9, 'jsonrpc': '2.0', 'result': {'currentBlockNumber': '0x2f', 'output': '0x00000000000000000000000000000000000000000000000000000000000000200000000000000000000000000000000000000000000000000000000000000000', 'status': '0x0'}}
2024-05-04 17:56:51,276 INFO - using protocol rpc
2024-05-04 17:57:01,343 INFO - using protocol rpc
2024-05-04 17:57:31,952 DEBUG - request: http://192.168.11.139:8545, call,data: b'{"jsonrpc": "2.0", "method": "call", "params": [1, {"data": "0x2d015f810000000000000000000000000000000000000000000000000000000000000002", "from": "0x2De5C210370Daef452Eb610AF76C3A293AE1661f", "to": "0xa2a0fc2a849613f56faf7a2f315bd7749bf95c62", "value": 0}], "id": 0}'
2024-05-04 17:57:32,037 DEBUG - GetResponse. call, Response: {'id': 0, 'jsonrpc': '2.0', 'result': {'currentBlockNumber': '0x2f', 'output': '0x00000000000000000000000000000000000000000000000000000000000000200000000000000000000000000000000000000000000000000000000000000000', 'status': '0x0'}}
2024-05-04 17:59:24,945 INFO - using protocol rpc
2024-05-04 17:59:55,662 DEBUG - request: http://192.168.11.139:8545, call,data: b'{"jsonrpc": "2.0", "method": "call", "params": [1, {"data": "0x2d015f810000000000000000000000000000000000000000000000000000000000000002", "from": "0x2De5C210370Daef452Eb610AF76C3A293AE1661f", "to": "0xa2a0fc2a849613f56faf7a2f315bd7749bf95c62", "value": 0}], "id": 0}'
2024-05-04 17:59:55,711 DEBUG - GetResponse. call, Response: {'id': 0, 'jsonrpc': '2.0', 'result': {'currentBlockNumber': '0x2f', 'output': '0x00000000000000000000000000000000000000000000000000000000000000200000000000000000000000000000000000000000000000000000000000000000', 'status': '0x0'}}
2024-05-04 18:00:59,899 DEBUG - request: http://192.168.11.139:8545, call,data: b'{"jsonrpc": "2.0", "method": "call", "params": [1, {"data": "0x2d015f810000000000000000000000000000000000000000000000000000000000000002", "from": "0x2De5C210370Daef452Eb610AF76C3A293AE1661f", "to": "0xa2a0fc2a849613f56faf7a2f315bd7749bf95c62", "value": 0}], "id": 1}'
2024-05-04 18:00:59,939 DEBUG - GetResponse. call, Response: {'id': 1, 'jsonrpc': '2.0', 'result': {'currentBlockNumber': '0x2f', 'output': '0x00000000000000000000000000000000000000000000000000000000000000200000000000000000000000000000000000000000000000000000000000000000', 'status': '0x0'}}
2024-05-04 18:02:51,366 INFO - using protocol rpc
2024-05-04 18:14:04,071 INFO - using protocol rpc
2024-05-04 18:14:57,482 DEBUG - blocklimit tick stamp 1714817697.48289
2024-05-04 18:14:57,483 DEBUG - request: http://192.168.11.139:8545, getBlockNumber,data: b'{"jsonrpc": "2.0", "method": "getBlockNumber", "params": [1], "id": 0}'
2024-05-04 18:14:57,520 DEBUG - GetResponse. getBlockNumber, Response: {'id': 0, 'jsonrpc': '2.0', 'result': '0x2f'}
2024-05-04 18:14:57,534 INFO - getBlocklimit:47,blocknum:47,old:0
2024-05-04 18:14:57,568 DEBUG - request: http://192.168.11.139:8545, sendRawTransaction,data: b'{"jsonrpc": "2.0", "method": "sendRawTransaction", "params": [1, "0xf9015484360b01f38401c9c3808401c9c38082022394a2a0fc2a849613f56faf7a2f315bd7749bf95c6280b8e4507eb644000000000000000000000000000000000000000000000000000000000000000100000000000000000000000000000000000000000000000000000000000000030000000000000000000000000000000000000000000000000000000000000003000000000000000000000000000000000000000000000000000000000000006400000000000000000000000000000000000000000000000000000000000000a0000000000000000000000000000000000000000000000000000000000000000ce7a59de682a8e5b9b3e5ae8900000000000000000000000000000000000000000101801ca0856567f373f5c3ffc9366e6b062d6ba8296db68831337cd6365b695073e20846a05d6d194d2416179561095459d808fb390c2bb2771fe4fbaebb3622f4f284c8d6"], "id": 1}'
2024-05-04 18:14:57,635 DEBUG - GetResponse. sendRawTransaction, Response: {'error': {'code': -32603, 'data': None, 'message': 'INTERNAL_ERROR: : INTERNAL_ERROR: : /FISCO-BCOS/libtxpool/TxPool.cpp(154): Throw in function virtual std::pair<dev::FixedHash<32>, dev::FixedHash<20> > dev::txpool::TxPool::submitTransactions(dev::eth::Transaction::Ptr)\nDynamic exception type: boost::exception_detail::clone_impl<dev::eth::TransactionRefused>\nstd::exception::what: std::exception\n[dev::tag_comment*] = TransactionNonceCheckFail, txHash=955970c3...\n'}, 'id': 1, 'jsonrpc': '2.0'}
2024-05-04 21:08:27,355 INFO - using protocol rpc
2024-05-04 21:08:38,435 INFO - using protocol rpc
2024-05-04 21:09:26,930 INFO - using protocol rpc
